{
  "_format": "hh-sol-artifact-1",
  "contractName": "Bank",
  "sourceName": "contracts/Bank.sol",
  "abi": [
    {
      "inputs": [],
      "stateMutability": "nonpayable",
      "type": "constructor"
    },
    {
      "inputs": [],
      "name": "balance",
      "outputs": [
        {
          "internalType": "uint256",
          "name": "",
          "type": "uint256"
        }
      ],
      "stateMutability": "view",
      "type": "function"
    },
    {
      "inputs": [
        {
          "internalType": "uint256",
          "name": "amount",
          "type": "uint256"
        }
      ],
      "name": "deposit",
      "outputs": [],
      "stateMutability": "nonpayable",
      "type": "function"
    },
    {
      "inputs": [],
      "name": "getBalance",
      "outputs": [
        {
          "internalType": "uint256",
          "name": "",
          "type": "uint256"
        }
      ],
      "stateMutability": "view",
      "type": "function"
    },
    {
      "inputs": [],
      "name": "owner",
      "outputs": [
        {
          "internalType": "address payable",
          "name": "",
          "type": "address"
        }
      ],
      "stateMutability": "view",
      "type": "function"
    },
    {
      "inputs": [
        {
          "internalType": "uint256",
          "name": "amount",
          "type": "uint256"
        }
      ],
      "name": "withdraw",
      "outputs": [],
      "stateMutability": "nonpayable",
      "type": "function"
    }
  ],
  "bytecode": "0x608060405234801561001057600080fd5b506000808190555033600160006101000a81548173ffffffffffffffffffffffffffffffffffffffff021916908373ffffffffffffffffffffffffffffffffffffffff160217905550610488806100686000396000f3fe608060405234801561001057600080fd5b50600436106100575760003560e01c806312065fe01461005c5780632e1a7d4d1461007a5780638da5cb5b14610096578063b69ef8a8146100b4578063b6b55f25146100d2575b600080fd5b6100646100ee565b6040516100719190610227565b60405180910390f35b610094600480360381019061008f9190610273565b6100f7565b005b61009e6101cb565b6040516100ab91906102e1565b60405180910390f35b6100bc6101f1565b6040516100c99190610227565b60405180910390f35b6100ec60048036038101906100e79190610273565b6101f7565b005b60008054905090565b60008111801561017557503073ffffffffffffffffffffffffffffffffffffffff166312065fe06040518163ffffffff1660e01b8152600401602060405180830381865afa15801561014d573d6000803e3d6000fd5b505050506040513d601f19601f820116820180604052508101906101719190610311565b8111155b6101b4576040517f08c379a00000000000000000000000000000000000000000000000000000000081526004016101ab9061039b565b60405180910390fd5b806000546101c291906103ea565b60008190555050565b600160009054906101000a900473ffffffffffffffffffffffffffffffffffffffff1681565b60005481565b80600054610205919061041e565b60008190555050565b6000819050919050565b6102218161020e565b82525050565b600060208201905061023c6000830184610218565b92915050565b600080fd5b6102508161020e565b811461025b57600080fd5b50565b60008135905061026d81610247565b92915050565b60006020828403121561028957610288610242565b5b60006102978482850161025e565b91505092915050565b600073ffffffffffffffffffffffffffffffffffffffff82169050919050565b60006102cb826102a0565b9050919050565b6102db816102c0565b82525050565b60006020820190506102f660008301846102d2565b92915050565b60008151905061030b81610247565b92915050565b60006020828403121561032757610326610242565b5b6000610335848285016102fc565b91505092915050565b600082825260208201905092915050565b7f496e76616c696420416d6f756e74000000000000000000000000000000000000600082015250565b6000610385600e8361033e565b91506103908261034f565b602082019050919050565b600060208201905081810360008301526103b481610378565b9050919050565b7f4e487b7100000000000000000000000000000000000000000000000000000000600052601160045260246000fd5b60006103f58261020e565b91506104008361020e565b9250828203905081811115610418576104176103bb565b5b92915050565b60006104298261020e565b91506104348361020e565b925082820190508082111561044c5761044b6103bb565b5b9291505056fea2646970667358221220f9e9612e98e0d3e0c13c23d2dfcd96fdd0e480c73955f8f37ce7b7681734755f64736f6c63430008120033",
  "linkReferences": {},
  "deployedLinkReferences": {}
}